:100000000C945D000C9485000C9485000C94850084
:100010000C9485000C9485000C9485000C9485004C
:100020000C9485000C9485000C9485000C948A0334
:100030000C9485000C9485000C9485000C9485002C
:100040000C9440030C9485000C940E030C94E8026D
:100050000C9485000C9485000C9485000C9485000C
:100060000C9485000C94850000000008000201003B
:100070000003040700000000000000000000000072
:10008000250028002B0000000000240027002A0083
:10009000040404040404040402020202020203032E
:1000A0000303030301020408102040800102040836
:1000B0001020010204081020460411241FBECFEFB7
:1000C000D8E0DEBFCDBF11E0A0E0B1E0E6EFFCE09C
:1000D00002C005900D92A832B107D9F721E0A8E23D
:1000E000B1E001C01D92AB3FB207E1F710E0CDE5F2
:1000F000D0E004C02197FE010E947306CC35D107E1
:10010000C9F70E94A3040C9479060C940000CF92C6
:10011000DF92EF92FF92DC01A03282E0B807D4F5C3
:10012000A53BB10514F0A4EBB0E04091F90128E83B
:1001300030E0241B310947FD3395220F331F220F76
:10014000331F6901330FEE08FF084091FA0128E5DB
:1001500032E0241B310947FD3395220F331F220F54
:10016000331F032E000C440B550B2C193D094E096F
:100170005F09B7FF02C0B0E0A0E00E94270624EBB1
:1001800030E040E050E00E94FD05C20ED31EE41EA8
:10019000F51ED601E091F801EC3080F52091F901CF
:1001A00088E890E0821B910927FD9395880F991F9D
:1001B000880F991FA817B90784F02091FA0188E5E4
:1001C00092E0821B910927FD9395880F991F880F54
:1001D000991FA817B9070CF4CD010297880F991F32
:1001E0004FB7F8942E2F30E0F901EE0FFF1FE20F0A
:1001F000F31FED52FE4F928381834FBFFF90EF902C
:10020000DF90CF900895AF92BF92CF92DF92EF929E
:10021000FF920F931F93CF93DF936C017B018B01B0
:10022000040F151FEB015E01AE18BF08C017D10700
:1002300059F06991D601ED91FC910190F081E02D8A
:10024000C6010995892B79F7C501DF91CF911F91DF
:100250000F91FF90EF90DF90CF90BF90AF900895F7
:10026000FC01538D448D252F30E0842F90E0821BBC
:10027000930B541710F0CF96089501970895FC0141
:10028000918D828D981761F0A28DAE0FBF2FB11D99
:100290005D968C91928D9F5F9F73928F90E00895F1
:1002A0008FEF9FEF0895FC01918D828D981731F0AB
:1002B000828DE80FF11D858D90E008958FEF9FEFFF
:1002C0000895FC01918D228D892F90E0805C9F4FD5
:1002D000821B91098F739927089586E391E00E940C
:1002E000610121E0892B09F420E0822F089580E04C
:1002F00090E0892B29F00E946D0181110C9400007F
:100300000895FC01A48DA80FB92FB11DA35ABF4FAA
:100310002C91848D90E001968F739927848FA68904
:10032000B7892C93A089B1898C91837080648C9358
:10033000938D848D981306C00288F389E02D808107
:100340008F7D80830895EF92FF920F931F93CF9339
:10035000DF93EC0181E0888F9B8D8C8D98131AC000
:10036000E889F989808185FF15C09FB7F894EE89E7
:10037000FF896083E889F989808183708064808344
:100380009FBF81E090E0DF91CF911F910F91FF908F
:10039000EF900895F62E0B8D10E00F5F1F4F0F7337
:1003A0001127E02E8C8D8E110CC00FB607FCFACFF2
:1003B000E889F989808185FFF5CFCE010E9481010E
:1003C000F1CFEB8DEC0FFD2FF11DE35AFF4FF082C3
:1003D0009FB7F8940B8FEA89FB8980818062CFCF29
:1003E000CF93DF93EC01888D8823B9F0AA89BB896C
:1003F000E889F9898C9185FD03C0808186FD0DC057
:100400000FB607FCF7CF8C9185FFF2CF808185FF77
:10041000EDCFCE010E948101E9CFDF91CF91089508
:1004200090E0FC01E859FF4F2491FC01EC55FF4F8F
:100430003491FC01E057FF4FE491EE23C9F02223F1
:1004400039F0233001F1A8F4213019F1223029F1DB
:10045000F0E0EE0FFF1FE458FF4FA591B4918FB766
:10046000F894EC91611126C030953E233C938FBFE8
:1004700008952730A9F02830C9F0243049F7809139
:1004800080008F7D03C0809180008F7780938000F3
:10049000DFCF84B58F7784BDDBCF84B58F7DFBCF75
:1004A0008091B0008F778093B000D2CF8091B00060
:1004B0008F7DF9CF3E2BDACF8E3008F08E508770CB
:1004C000806480937C0080917A00806480937A00BD
:1004D00080917A0086FDFCCF809178009091790020
:1004E00008953FB7F89480912E0190912F01A0912B
:1004F0003001B091310126B5A89B05C02F3F19F0FE
:100500000196A11DB11D3FBFBA2FA92F982F882793
:10051000BC01CD01620F711D811D911D42E0660F6E
:10052000771F881F991F4A95D1F708958F929F9240
:10053000AF92BF92CF92DF92EF92FF920E94710230
:100540004B015C018AE0C82ED12CE12CF12C0E94D9
:100550007102681979098A099B09683E734081050F
:100560009105A8F321E0C21AD108E108F10888EE4C
:10057000880E83E0981EA11CB11CC114D104E104B3
:10058000F10429F7FF90EF90DF90CF90BF90AF90EC
:100590009F908F900895CF93DF93FC0101900020EE
:1005A000E9F73197AF01481B590BBC0186E391E095
:1005B0000E940301EC0142E050E064E171E086E357
:1005C00091E00E9403018C0F9D1FDF91CF91089550
:1005D0001F920F920FB60F9211242F933F934F93B8
:1005E0005F936F937F938F939F93AF93BF93EF939B
:1005F000FF9386E391E00E948101FF91EF91BF910B
:10060000AF919F918F917F916F915F914F913F91AA
:100610002F910F900FBE0F901F9018951F920F9261
:100620000FB60F9211242F938F939F93EF93FF9305
:10063000E0914601F09147018081E0914C01F091F9
:100640004D0182FD1BC0908180914F018F5F8F73A0
:1006500020915001821741F0E0914F01F0E0EA5CF7
:10066000FE4F958F80934F01FF91EF919F918F9156
:100670002F910F900FBE0F901F9018958081F4CF8F
:100680001F920F920FB60F9211242F933F938F93C7
:100690009F93AF93BF9380912A0190912B01A091DA
:1006A0002C01B0912D013091290123E0230F2D372A
:1006B00058F50196A11DB11D2093290180932A01AF
:1006C00090932B01A0932C01B0932D0180912E01CA
:1006D00090912F01A0913001B09131010196A11D9F
:1006E000B11D80932E0190932F01A0933001B09300
:1006F0003101BF91AF919F918F913F912F910F90B9
:100700000FBE0F901F90189526E8230F0296A11D8B
:10071000B11DD2CF1F920F920FB60F9211242F93BB
:100720003F934F935F936F937F938F939F93AF9379
:10073000BF93CF93DF93EF93FF9380912801C091F4
:10074000F701D0E087FF24C010928500109284004A
:10075000809128018F5F8093280180912801082EC5
:10076000000C990B8C179D0724F4809128018C3084
:10077000C4F18091840090918500049680349C4956
:1007800008F47AC08091840090918500049676C028
:1007900080912801082E000C990B8C179D07C4F638
:1007A000E09128018E2FEE0F990BFC01EE0FFF1F39
:1007B000E80FF91FED52FE4F808186FFC9CFE0910F
:1007C00028018E2FEE0F990BFC01EE0FFF1FE80F93
:1007D000F91FED52FE4F808160E08F730E9410027E
:1007E000B7CF2091840030918500E09128018E2FB1
:1007F000EE0F990BFC01EE0FFF1FE80FF91FED52F2
:10080000FE4F81819281820F931F90938900809384
:100810008800E09128018E2FEE0F990BFC01EE0F5E
:10082000FF1FE80FF91FED52FE4F808186FF11C0B8
:10083000E09128018E2FEE0F990BFC01EE0FFF1FA8
:10084000E80FF91FED52FE4F808161E08F730E9427
:100850001002FF91EF91DF91CF91BF91AF919F91E6
:100860008F917F916F915F914F913F912F910F9059
:100870000FBE0F901F90189580E49CE9909389001B
:10088000809388008FEF80932801E3CF1092390185
:100890001092380188EE93E0A0E0B0E080933A0136
:1008A00090933B01A0933C01B0933D0186E091E021
:1008B000909337018093360185EC90E0909343014B
:1008C0008093420184EC90E0909345018093440131
:1008D00080EC90E0909347018093460181EC90E09A
:1008E000909349018093480182EC90E090934B01F2
:1008F00080934A0186EC90E090934D0180934C01E7
:1009000010924F0110925001109251011092520119
:100910008091F7018C3098F491E0980F9093F70153
:100920008093F80190E0FC01EE0FFF1FE80FF91F24
:10093000ED52FE4F88EB9BE09283818308958FEF09
:100940008093F8010895789484B5826084BD84B55D
:10095000816084BD85B5826085BD85B5816085BDBA
:1009600080916E00816080936E0010928100809172
:1009700081008260809381008091810081608093FA
:100980008100809180008160809380008091B1001F
:1009900084608093B1008091B00081608093B0004A
:1009A00080917A00846080937A0080917A008260DE
:1009B00080937A0080917A00816080937A008091A0
:1009C0007A00806880937A001092C1008091F801CB
:1009D0008C3008F068C0EFEAF0E02491EBE9F0E039
:1009E0008491882399F090E0880F991FFC01EA57C1
:1009F000FF4FA591B491FC01E458FF4F859194916C
:100A00008FB7F894EC91E22BEC938FBF8091F801B3
:100A1000282F30E0F901EE0FFF1FE20FF31FED5218
:100A2000FE4F9081907C9B6090831092F901109210
:100A3000FA012CE0622F0E946006829FB00111240F
:100A400030E020E0AB01420F531FFA01EE0FFF1F11
:100A5000E40FF51FED52FE4F908196FD16C02F5FFB
:100A60003F4F2C30310571F781110FC0109280007B
:100A700082E0809381001092850010928400B19AE8
:100A800080916F00826080936F00E091F8018E2F5B
:100A900090E0FC01EE0FFF1FE80FF91FED52FE4F33
:100AA000808180648083E0914601F091470182E07B
:100AB0008083E0914201F09143011082E091440172
:100AC000F09145018FEC808310924E01E0914A0134
:100AD000F0914B0186E08083E0914801F09149015B
:100AE000808180618083E0914801F091490180819B
:100AF00088608083E0914801F0914901808180689D
:100B00008083E0914801F091490180818F7D80834D
:100B100080910001909101010E94870088248A94AD
:100B200083E0982EA12CB12CC0E0D0E084E00E949C
:100B30005C027C0185E00E945C028C0124EB30E0C9
:100B4000D7010E946C06A50194010E94FD05690170
:100B5000309335012093340124EB30E0D8010E941A
:100B60006C06A50194010E94FD05C9013093330173
:100B7000209332012E5C3F4F2C153D051CF58091D2
:100B8000000190910101843B91052CF40196909312
:100B900001018093000180910001909101010E9468
:100BA000870087E191E00E94CB020E949602209785
:100BB00009F4BCCF0E946D01882309F4B7CF0E94CD
:100BC0000000B4CF22E3C20ED11CC816D9067CF7B0
:100BD0008091000190910101181619062CF40197DB
:100BE0009093010180930001809100019091010197
:100BF0000E94870080E291E0D6CF052E97FB1EF47D
:100C000000940E94140657FD07D00E942F0607FC8F
:100C100003D04EF40C9414065095409530952195D0
:100C20003F4F4F4F5F4F0895909580957095619518
:100C30007F4F8F4F9F4F08950E945106A59F900DA3
:100C4000B49F900DA49F800D911D11240895B7FFAE
:100C50000C941C060E941C06821B930B0895A1E2B3
:100C60001A2EAA1BBB1BFD010DC0AA1FBB1FEE1F26
:100C7000FF1FA217B307E407F50720F0A21BB30B71
:100C8000E40BF50B661F771F881F991F1A9469F7ED
:100C900060957095809590959B01AC01BD01CF0149
:100CA0000895A29FB001B39FC001A39F700D811D45
:100CB0001124911DB29F700D811D1124911D089565
:100CC000991B79E004C0991F961708F0961B881F9E
:100CD0007A95C9F7809508950E945106B7FF089547
:100CE000821B930B0895EE0FFF1F0590F491E02DEA
:060CF0000994F894FFCF07
:100CF6005A0000000000A30103013001F001610168
:100D06003F0153010D0A006261636B7761726400F3
:080D1600666F727761726400E0
:00000001FF
